S01000004144435F746573742E737265632D
S11300000C943E000C9450000C9450000C9450003E
S11300100C9450000C9450000C9450000C9450001C
S11300200C9450000C9450000C9450000C9450000C
S11300300C9450000C9450000C9450000C945000FC
S11300400C9450000C9450000C9450000C945000EC
S11300500C94CA000C9450000C9450000C94500062
S11300600C9450000C9450000C9450000C945000CC
S11300700C9450000C9450000C94500011241FBE9A
S1130080CFEFD8E0DEBFCDBF21E0A0E0B1E001C0FA
S11300901D92A130B207E1F70E9452000C94E300D4
S11300A00C9400008AB18E7F8AB98AB182608AB9C1
S11300B08BB182608BB9E0ECF0E080818D7F80832E
S11300C087E190E09093C5008093C400E2ECF0E0F7
S11300D080818F73808380818F7C80838081877F00
S11300E08083A1ECB0E08C918B7F8C9380818660BF
S11300F080838C9180688C938C9188618C93ECE7DD
S1130100F0E080818F778083808180648083808128
S1130110806280838081807E8083EAE7F0E0808152
S11301208560808380818D7F808380818F7D8083C3
S1130130AEE7B0E08C9181608C938081806880838D
S113014081E08093C600789480917A0086FFFCCF8A
S113015080917A0086FDFCCF2091790030E0220F57
S1130160331F220F331F80917800282B8091C00009
S113017085FFFCCF1092C6008091C00085FFFCCFA4
S11301802093C6008091C00085FFFCCF8AE0809355
S1130190C600DACF1F920F920FB60F9211248F93DD
S11301A0EF93FF938091C60080930001EAE7F0E0AB
S11301B0808180648083FF91EF918F910F900FBEB7
S10D01C00F901F901895F894FFCFDC
S9030000FC
